S01D0000343530305F4C4544616E64425554544F4E6374726C2E7372656346
S21440000080064020D1014000CD014000CD01400097
S214400010CD014000CD014000CD0140000000000071
S214400020000000000000000000000000CD0140007D
S214400030CD01400000000000CD014000CD01400051
S214400040CD014000CD014000CD014000CD01400033
S214400050CD014000CD014000CD014000CD01400023
S214400060CD0140000000000091094000CD01400055
S21440007000000000CD014000CD014000000000001F
S214400080850940000000000000000000CD0140004F
S214400090CD01400000000000CD014000CD014000F1
S2144000A0CD014000CD014000CD014000CD014000D3
S2144000B0CD014000CD014000CD014000CD014000C3
S2144000C0CD014000CD014000CD01400000000000C1
S2144000D000000000000000000000000000000000DB
S2144000E0CD0140000000000000000000CD014000AF
S2144000F0CD0140000000000000000000CD0140009F
S214400100CD014000CD014000CD014000CD01400072
S214400110CD0140000000000000000000000000008C
S214400120CD014000CD014000CD014000CD01400052
S214400130CD014000CD01400000000000CD01400050
S214400140000000000000000000000000000000006A
S214400150CD01400010B5054C237833B9044B13B19C
S2144001600448AFF300800123237010BD00004020F8
S21440017000000000201240000C4B43B10C480D49D3
S21440018010B5AFF300800C48036823B910BD0A4889
S214400190036833B97047094B002BF7D0BDE81040D1
S2144001A01847064B002BF5D0184700BF000000004C
S2144001B020124000040040202012400000000000B2
S2144001C008B5014B984708BD0D034000FEE7000008
S2144001D008B5104B104A9A4209D00E4B0E4A03E01F
S2144001E011681960043304320C498B42F8D30C4B27
S2144001F002E000221A6004330A4A9342F9D30A4ABC
S2144002000A4B23F07F039360094B9847094B984766
S214400210FEE700BF000040202012400000004020C3
S214400220000040207C00402000ED00E00000400040
S214400230F9104000110F40000D4B01225A611A661A
S214400240C3F890201A6080225A611A66C3F890203C
S2144002501A604FF480725A611A66C3F890201A608A
S2144002604FF400725A611A66C3F890201A607047BD
S21440027000140E40034B20225A611A66C3F89020A1
S2144002801A607047000E0E400A4B1A6F22F010029A
S2144002901A675A6F22F010025A6710225A601A6F75
S2144002A022F008021A675A6F22F008025A6708229C
S2144002B05A607047000E0E40044B9B6913F4002FA3
S2144002C003D14FF40022014B1A61704700060E40DE
S2144002D008B5044B984704490448054B9847054BD6
S2144002E0984708BDB90240000080014050004020B9
S2144002F0C50540008902400008B50248024B9847B1
S21440030008BD00BF10E000E0E903400008B5264BFA
S2144003109847264B9B6913F4806F03D14FF4806255
S214400320224B1A61214B9B6913F4803F03D14FF453
S21440033080321E4B1A611E4A536843F40043536092
S2144003401C4B80225A611A66C3F890201A604FF000
S21440035080725A611A66C3F890201A6003F5C0632B
S2144003604FF400115963196119604FF480015961C7
S2144003701966C3F8901019605A611A66C3F890203F
S2144003801A604FF000425A611A66C3F890201A600D
S214400390094B9847094B9847094B9847094B98474C
S2144003A0094B984708BD00BF1107400000060E40A5
S2144003B050180E40000E0E403902400075024000B4
S2144003C0D1024000F902400061044000EFF3108380
S2144003D0036072B6BFF35F8F7047BFF35F8F0368EB
S2144003E083F310887047000008B5024B1860024B34
S2144003F0984708BD1C004020E90A400010B5044B51
S2144004001C68044B984701462046034B984710BD4E
S2144004101C004020FF064000F50A400038B5052580
S214400420002407E00D4A52F83330B3B1984738BD40
S214400430013AD5B2AC4210D82B195B10DAB2042A76
S2144004400BD81346054901EBC20149688142E9D001
S2144004508142EDD20132D4B2ECE738BD20004020D4
S21440046008B500230AE0084A02EBC3014FF0FF300C
S2144004704860002142F8331001339BB2042BF2D976
S2144004800248034B984708BD200040201D0440000A
S2144004909D094000F0B583B005460023042B0ED8D6
S2144004A018462E4A02EBC3025268AA4202D00133D3
S2144004B0DBB2F3E7294B43F83010012700E0002772
S2144004C059B1002F3DD10026042E13D8234B53F8A4
S2144004D0363043B10136F6B2F6E7002F38D028461C
S2144004E01F4B984732E01D4B43F8361003EBC603CC
S2144004F05D600127002301E00133DBB2042B98BF87
S214400500042E1ED8B646154A02EBC601486802EBD2
S214400510C30252689042EFD2B2F1FF3FECD00F4C8C
S21440052004EBC30292E803008DE8030004EBC60424
S21440053094E8030082E803009DE8030084E8030093
S214400540DAE747B101212846054B984703B0F0BD8E
S2144005506FF00C00FAE76FF00C00F7E72000402041
S214400560C509400010B584B00389ADF80430144680
S21440057002924FF40043ADF80630039101A91438B7
S214400580034B984710B9204604B010BD0446FAE71E
S214400590D90B400010B584B00389ADF8043014463A
S2144005A0029248F20103ADF80630039101A91438CF
S2144005B0034B984710B9204604B010BD0446FAE7EE
S2144005C0D90B400038B50D4604465E220849003037
S2144005D018BF0120074B984729462046064B9847A8
S2144005E0034618B9054AA261054A6261184638BDF5
S2144005F040114000F90640006D0B40009505400054
S2144006006505400008B5014B984708BDB50B40004E
S214400610C1F3090102F480620A43828310467047A0
S21440062070B586B0044616461D468DF80710838B77
S214400630ADF80C30012304930023ADF80E300DF1D5
S2144006400703059303A9094B9847034610B118467C
S21440065006B070BD4FF40043ADF80E3005960495D5
S21440066003A92046014B98470346F0E7D90B4000C4
S21440067070B586B0044616461D468DF80710838B27
S214400680ADF80C30012304930023ADF80E300DF185
S2144006900703059303A9094B9847034610B118462C
S2144006A006B070BD48F20103ADF80E3005960495CD
S2144006B003A92046014B98470346F0E7D90B400074
S2144006C0143008600020704770B5164604460D4644
S2144006D0002818BF002914BF012000203D220449ED
S2144006E0044B98476368324629462046984770BD73
S2144006F05C114000F906400000B900BE70474FF458
S214400700967303FB00F04FF47A7303FB00F07047D8
S21440071000B583B001A80E4B98470E4AD2F88830F1
S21440072043F47003C2F88830BFF34F8FBFF36F8F28
S21440073001A8094B9847094A136823F4706343F4A9
S214400740C0631360064B984703B05DF804FB00BFD8
S214400750CD03400000ED00E0DB034000000C0E40FF
S214400760C10A400030B400258D4210D20122002339
S2144007701F2B0AD850F82540224202D1520001339E
S214400780F6E703EB451030BC70470135ECE74FF019
S214400790FF30F8E710B586B0002301930293039329
S2144007A004930593224B18684FF481722149003018
S2144007B018BF0120204B9847204BDA6C9B6C1340A7
S2144007C001931F49CA6C896C0A400492134325E082
S2144007D0174B1B6820469847631104F01F040122FC
S2144007E002FA04F406AA02EB830353F8142C22EA16
S2144007F0040243F8142C052101A8124B98470446DE
S214400800B4F1FF3FE4D10D4AD16C936C0B40019399
S2144008100B49C86C8A6C0240049213432BB10521E5
S21440082001A8084B98470446EAE706B010BD00BF4B
S21440083048004020B0114000F9064000000E0E402F
S21440084000140E406507400010B50446DC220549FA
S214400850003018BF0120044B984704482044C0F39A
S214400860472010BDB0114000F906400000F2F1BF2D
S21440087010B50446EA220D49003018BF01200C4B43
S214400880984720460B4B98470023012B0BD8C3EBC9
S214400890C3018A0008498A5C904202D00133DBB229
S2144008A0F3E758B210BD4FF0FF3010BDB011400016
S2144008B0F9064000490840007011400038B504462B
S2144008C040F263122949003018BF0120284B984750
S2144008D02046284B9847002843DB274DC200111A74
S2144008E08B002B449968C4F8B010D968C4F8C0107F
S2144008F01969C4F8C4109B69C4F8D030101A830034
S2144009002B445B69C4F8D43020461C4B9847284497
S21440091090F93830002B0CDB5A0903F01F000121F8
S21440092081402032164840F82210BFF34F8FBFF365
S2144009306F8F002B08DB5A0903F01F00012181400E
S21440094060320F4840F82210002B0DDB590903F0A7
S2144009501F03012202FA03F3094A42F8213000201D
S21440096038BD6FF0100038BD002038BDB0114000D3
S214400970F9064000710840007011400049084000E8
S21440098000E100E008B5014B984708BD95074000D8
S21440099008B5014B984708BD9507400038B5054651
S2144009A00448054CA0470548A047054B1D6000205D
S2144009B038BD00BF000E0E40BD08400000140E407B
S2144009C0480040202DE9F04104460F46DFF85080AD
S2144009D04FF4D87241469F288CBF002001200E4E0F
S2144009E0B047E5B2CD2241469F2D8CBF0020012066
S2144009F0B0476D09094B03EB452504F01F0437B992
S214400A00012303FA04F46C640020BDE8F08101235E
S214400A1003FA04F42C64F7E7F9064000000E0E4093
S214400A20B01140000E490A6A22F002020D4B1343F1
S214400A300B620B4B9B6E13F0010FFAD0084B196AF2
S214400A40094A0A431A62996A084A0A409A62084A58
S214400A509A62034B9B6E13F0020FFAD0704700BFAA
S214400A6000060E40013E370000003701FFFF00F849
S214400A70013F1820114A136B23F0700313630F4B8A
S214400A809B6E13F0080FFAD00C4A136B23F4407396
S214400A9043F480731363094B9B6E13F0080FFAD030
S214400AA0064A136B23F0030343F002031363034B1E
S214400AB09B6E13F0080FFAD0704700BF00060E403A
S214400AC008B5024B9847024B984708BD250A400098
S214400AD0750A4000034B6FF07F425A6005221A6049
S214400AE0704700BF10E000E008B5014B984708BDCE
S214400AF0D50A4000080E0DE00D4B6FF07F40586061
S214400B0098600B4B1B6813F4803FFAD001F17F418D
S214400B1001311046431EDAB20028EDD1044B59602D
S214400B209960034B1B6813F4803FFAD0704700BFB0
S214400B3010E000E000233BB10020704703EB430485
S214400B40E300084618440CE010B403EB4301CA0027
S214400B5005498A588242F1D00133DBB2002BF4D0EB
S214400B6000205DF8044B7047CC11400038B5044671
S214400B700D46002818BF002914BF01200020782207
S214400B8009490A4B984725612846094B98474368C8
S214400B902B60236982689A632369C2685A64236912
S214400BA002691A61002038BDE4114000F906400091
S214400BB0350B400010B5044695220549003018BF55
S214400BC00120044B9847236904221A60002010BD78
S214400BD0E4114000F906400038B504460D460028AA
S214400BE018BF002914BF01200020BA225249534B97
S214400BF09847638813F4807F40F09A806B8813F0A0
S214400C00010F18D16B889BB243F480736B802B889E
S214400C1013F4806F5FD022691B0A43F078031B04ED
S214400C2003F4FE0343F48073536023692A78DA6042
S214400C30002001465CE06B889BB243F480736B8077
S214400C402B8813F4806F22D022691B0A43F0780366
S214400C501B0403F4FE0343F48853536023692A7845
S214400C60DA6023696A68012A19D001221A600021D5
S214400C706B68994222D223691A6A12F0020F10D189
S214400C801B6A13F4807FF6D06FF0010038BD2269EE
S214400C901B0403F4FE0343F480535360E1E703224E
S214400CA0E4E7AA681B6B53546B68023B994201D039
S214400CB00131DDE7236902221A60F9E723691B6ADE
S214400CC013F0010FFAD063889BB223F480739BB273
S214400CD06380002038BD22691B0403F4FE03536082
S214400CE0A6E76FF0010078B9AB685B5C53630131EF
S214400CF06B68994208D22269136A13F4807FF0D158
S214400D0013F0040FF7D0EEE76B8813F4004F06D1CC
S214400D1063889BB223F480739BB2638038BD23699B
S214400D2002221A6023691B6A13F0010FFAD0EFE71C
S214400D306FF0050038BD00BFE4114000F9064000E2
S214400D400122014B1A7070474C004020064A936BB4
S214400D5003F40013D94301F4001111635363034AAB
S214400D60137801331370704700140E407100402012
S214400D70064A936B03F40013D94301F40011116340
S214400D805363034A137801331370704700140E40C0
S214400D9071004020064A936B03F40013D94301F4D4
S214400DA0001111635363034A13780133137070477D
S214400DB000140E407100402010B5044C04492046F3
S214400DC0044B98472046044B984710BD500040209F
S214400DD074004020C106400005064000F0B583B0D0
S214400DE00E4602AC44F8042D1F46074D4FF40062F1
S214400DF001462846054B98473B46224631462846FC
S214400E00034CA04703B0F0BD500040201106400000
S214400E102106400010B582B0002403E00120254B97
S214400E2098470134022C17DC4FF4006238212248E0
S214400E30224B9847012201A9214B1868214B98471D
S214400E40214B5B78002BE9D1204B1978204A117052
S214400E509DF804201A70E1E7002403E00120154BBA
S214400E6098470134022C18DC4FF4006239211248AE
S214400E70124B984701220DF10501114B1868114B92
S214400E809847114B5B78002BE8D1124B1978124AE1
S214400E9011709DF805201A70E0E70B4B5B7823B97C
S214400EA00133094A537002B010BD0022064B5A70F7
S214400EB0F9E700BFFD034000500040201106400007
S214400EC074004020C90640004C004020700040207E
S214400ED072004020790040207800402030B583B032
S214400EE002AC44F8041D074D4FF4006250212846DA
S214400EF0054B984701232246E1B22846034CA047BB
S214400F0003B030BD5000402011064000710640003E
S214400F10F8B56B4B98476B4B984701230022114618
S214400F203820694CA0470123002211463920A047AB
S214400F300123FF2211463920A04764490520644C0E
S214400F40A04764496720A04763496820A047634D8F
S214400F5029466920A04729466020A047012600254B
S214400F602C4643E00026344640E0BF2B00F0878006
S214400F70EF2B1ED101237F2211463920524FB8470E
S214400F804FF47A70564B98470123FF22114639207A
S214400F90B8470EE00123DF22114639204A4FB847B2
S214400FA04FF47A704E4B98470123FF221146392062
S214400FB0B847FF224B4B1A704B4B1B78002B6ED119
S214400FC00022494B5A70002E6FD00123A3401D4388
S214400FD0EDB201232A46294638203B4FB8476420C5
S214400FE03F4B9847072C65D80134E4B24FF6FF7163
S214400FF010203E4B98473E4A137801331370002228
S214401000394B9A70374B1B78FF2BD5D0F72B16D021
S214401010ABD9FD2B23D0FE2BBCD0FB2BC9D1012353
S214401020DF2211463920284FB8474FF47A702C4BB0
S21440103098470123FF2211463920B847B9E70123D4
S214401040DF2211463920204FB8474FF47A70244BA0
S21440105098470123FF2211463920B847A9E70123C4
S214401060DF2211463920184FB8474FF47A701C4B90
S21440107098470123FF2211463920B84799E70123B4
S2144010807F2211463920104FB8474FF47A70144BE0
S21440109098470123FF2211463920B84789E7154B68
S2144010A098470022104B1A708DE70123A34025EA8B
S2144010B003058EE7002E7FF455AF0126002495E702
S2144010C0C1014000B90D4000DD0D4000410D40001B
S2144010D095044000950D4000710D40004D0D4000B8
S2144010E0FD034000790040204C004020DD0E4000CB
S2144010F071004020150E400070B50D4E0D4CA41BDF
S214401100A4100025A54209D10B4E0C4C00F078F8EF
S214401110A41BA4100025A54205D170BD56F8253065
S21440112098470135EEE756F8253098470135F2E7FF
S2144011300C1240000C1240000C12400010124000EE
S2144011402E2E2F68616C2F7372632F68616C5F69F7
S21440115032635F6D5F73796E632E63002E2E2F6849
S214401160616C2F7372632F68616C5F696F2E6300CA
S214401170000000002000000000000000000000000A
S2144011800000000000000000000000000300000017
S2144011908103000001000000000000000100000084
S2144011A000000000010000000A0B001000000000D4
S2144011B02E2E2F68706C2F70696F2F68706C5F7062
S2144011C0696F5F6578742E63000000000080014000
S2144011D0200000000000000000000000BABA020034
S2144011E0F04902002E2E2F68706C2F747769687352
S2144011F02F68706C5F74776968732E630000000018
S214401200F8B500BFF8BC08BC9E4670477901400060
S214401210F8B500BFF8BC08BC9E4670475501400074
S804400000BB
